{
  "abi": [
    {
      "inputs": [],
      "stateMutability": "nonpayable",
      "type": "constructor"
    },
    {
      "inputs": [
        {
          "internalType": "uint256",
          "name": "amountIn",
          "type": "uint256"
        },
        {
          "internalType": "uint256",
          "name": "reserveIn",
          "type": "uint256"
        },
        {
          "internalType": "uint256",
          "name": "reserveOut",
          "type": "uint256"
        },
        {
          "internalType": "uint32",
          "name": "tokenWeightIn",
          "type": "uint32"
        },
        {
          "internalType": "uint32",
          "name": "tokenWeightOut",
          "type": "uint32"
        },
        {
          "internalType": "uint32",
          "name": "swapFee",
          "type": "uint32"
        },
        {
          "internalType": "uint32",
          "name": "feePrecision",
          "type": "uint32"
        }
      ],
      "name": "getAmountOut",
      "outputs": [
        {
          "internalType": "uint256",
          "name": "amountOut",
          "type": "uint256"
        }
      ],
      "stateMutability": "view",
      "type": "function"
    }
  ],
  "bytecode": {
    "object": "0x608060405234801561001057600080fd5b5061073f6001641c35fedd1560601b036020556001646c3390ecc9605e1b036021556001640cf801476160611b0360225560016431bdb23e1d605f1b0360235560016502fb1d8fe083605b1b0360245560016505b771955b37605a1b036025556001650af67a93bb5160591b0360265560016515060c256cb360581b036027556001651428a2f98d7360581b036028556001654d515663970960561b03602955600165944620b0e70f60551b03602a55600166011c592761c66760541b03602b5560016602214d10d014eb60531b03602c55600166020ade36b7dbef60531b03602d5560016603eab73b3bbfe360521b03602e556001660782ee3593f6d760511b03602f556001661ccf4b44bb4821604f1b0360305560016606e7f88ad8a77760511b0360315560016669f3d1c921891d604d1b03603255600166cb2ff529eb71e5604c1b03603355600166c2d415c3db974b604c1b0360345560016702eb40f9f620fda7604a1b0360355560016705990681d961a1eb60491b03603655600167055e12902701414760491b0360375560016714962dee9dc9764160471b0360385560016704ef57b9b560fab560491b0360395560016712ed7b32a58f552b60471b03603a556001679131271922eaa60760441b03603b556001678b380f3558668c4760441b03603c556001680215f77c045fbe885760421b03603d556001600160831b03603e556001670f577eded5773a1160471b03603f556001680eb5ec597592befbf5603f1b036040556001681c35fedd14b861eb05603e1b036041556001683619c87664579bc94b603d1b0360425560016867c00a3b07ffc01fd7603c1b03604355600168c6f6c8f8739773a7a5603b1b03604455600168bec763f8209b7a72b1603b1b0360455560016902dbb8caad9b7097b91b60391b03604655600169057b3d49dda84556d6f760381b03604755600169054183095b2c8ececf3160381b036048556001690a14517cc6b9457111ef60371b0360495560016913545598e5c23276ccf160361b03604a556001692511882c39c3adea96ff60351b03604b55600169471649d87199aa99075760341b03604c557004429a21a029d4c1457cfbffffffffffff604d55700415bc6d6fb7dd71af2cb3ffffffffffff604e557003eab73b3bbfe282243ce1ffffffffffff604f557003c1771ac9fb6b4c18e229ffffffffffff605055700399e96897690418f785257fffffffffff605155700373fc456c53bb779bf0ea9fffffffffff60525570034f9e8e490c48e67e6ab8bfffffffffff60535570032cbfd4a7adc790560b3337ffffffffff60545570030b50570f6e5d2acca94613ffffffffff6055557002eb40f9f620fda6b56c2861ffffffffff6056557002cc8340ecb0d0f520a6af58ffffffffff6057557002af09481380a0a35cf1ba02ffffffffff605855700292c5bdd3b92ec810287b1b3fffffffff605955700277abdcdab07d5a77ac6d6b9fffffffff605a5570025daf6654b1eaa55fd64df5efffffffff605b55700244c49c648baa98192dce88b7ffffffff605c5570022ce03cd5619a311b2471268bffffffff605d55700215f77c045fbe885654a44a0fffffffff605e556001600160811b03605f557001eaefdbdaaee7421fc4d3ede5ffffffff6060557001d6bd8b2eb257df7e8ca57b09bfffffff6061557001c35fedd14b861eb0443f7f133fffffff6062557001b0ce43b322bcde4a56e8ada5afffffff60635570019f0028ec1fff007f5a195a39dfffffff60645570018ded91f0e72ee74f49b15ba527ffffff60655570017d8ec7f04136f4e5615fd41a63ffffff60665570016ddc6556cdb84bdc8d12d22e6fffffff60675570015ecf52776a1155b5bd8395814f7fffff60685570015060c256cb23b3b3cc3754cf40ffffff6069557001428a2f98d728ae223ddab715be3fffff606a5570013545598e5c23276ccf0ede68034fffff606b557001288c4161ce1d6f54b7f61081194fffff606c5570011c592761c666aa641d5a01a40f17ffff606d55700110a688680a7530515f3e6e6cfdcdffff606e557001056f1b5bedf75c6bcb2ce8aed428ffff606f556ffaadceceeff8a0890f3875f008277fff6070556ff05dc6b27edad306388a600f6ba0bfff6071556fe67a5a25da41063de1495d5b18cdbfff6072556fdcff115b14eedde6fc3aa5353f2e4fff6073556fd3e7a3924312399f9aae2e0f868f8fff6074556fcb2ff529eb71e41582cccd5a1ee26fff6075556fc2d415c3db974ab32a51840c0b67edff6076556fbad03e7d883f69ad5b0a186184e06bff6077556fb320d03b2c343d4829abd6075f0cc5ff6078556fabc25204e02828d73c6e80bcdb1a95bf6079556fa4b16f74ee4bb2040a1ec6c15fbbf2df607a556f9deaf736ac1f569deb1b5ae3f36c130f607b556f976bd9952c7aa957f5937d790ef65037607c556f9131271922eaa6064b73a22d0bd4f2bf607d556f8b380f3558668c46c91c49a2f8e967b9607e556f857ddf0117efa215952912839f6473e6607f55565b611a028061074e6000396000f3fe608060405234801561001057600080fd5b506004361061002b5760003560e01c8063f87576e814610030575b600080fd5b61004361003e3660046117f7565b610055565b60405190815260200160405180910390f35b60008088116100bb5760405162461bcd60e51b815260206004820152602760248201527f4b79626572466f726d756c613a20494e53554646494349454e545f494e50555460448201526617d05353d5539560ca1b60648201526084015b60405180910390fd5b6000871180156100cb5750600086115b6101235760405162461bcd60e51b8152602060048201526024808201527f4b79626572466f726d756c613a20494e53554646494349454e545f4c495155496044820152634449545960e01b60648201526084016100b2565b6000610147610132858561187e565b63ffffffff168a61021490919063ffffffff16565b90508463ffffffff168663ffffffff1614156101965761017a816101748a63ffffffff8088169061021416565b90610227565b6101848883610214565b61018e91906118b9565b915050610209565b600080806101b1846101748d63ffffffff808b169061021416565b90506101d1816101ca8d63ffffffff808b169061021416565b8b8b610233565b909350915060006101e28b85610214565b905060ff83168b901b846101f682846118cd565b61020091906118b9565b96505050505050505b979650505050505050565b600061022082846118e4565b9392505050565b60006102208284611903565b600080848610156102865760405162461bcd60e51b815260206004820152601b60248201527f6e6f7420737570706f7274205f626173654e203c205f6261736544000000000060448201526064016100b2565b600160811b861061029657600080fd5b600080866102a86001607f1b8a6118e4565b6102b291906118b9565b905070015bf0a8b1457695355fb8ac404e7a79e38110156102dd576102d681610370565b91506102e9565b6102e6816108e9565b91505b60008563ffffffff168763ffffffff168461030491906118e4565b61030e91906118b9565b9050600160831b8110156103335761032581610a2c565b607f94509450505050610367565b600061033e82611057565b905061035a61034e82607f61191b565b60ff1683901c8261110a565b9550935061036792505050565b94509492505050565b6000808080806fd3094c70f034de4b96ff7d5b6f99fcd886106103c95761039b6001607e1b85611903565b93506fd3094c70f034de4b96ff7d5b6f99fcd86103bc6001607f1b886118e4565b6103c691906118b9565b95505b6fa45af1e1f40c333b3de1db4dd55f29a7861061041c576103ee6001607d1b85611903565b93506fa45af1e1f40c333b3de1db4dd55f29a761040f6001607f1b886118e4565b61041991906118b9565b95505b6f910b022db7ae67ce76b441c27035c6a1861061046f576104416001607c1b85611903565b93506f910b022db7ae67ce76b441c27035c6a16104626001607f1b886118e4565b61046c91906118b9565b95505b6f88415abbe9a76bead8d00cf112e4d4a886106104c2576104946001607b1b85611903565b93506f88415abbe9a76bead8d00cf112e4d4a86104b56001607f1b886118e4565b6104bf91906118b9565b95505b6f84102b00893f64c705e841d5d4064bd38610610515576104e76001607a1b85611903565b93506f84102b00893f64c705e841d5d4064bd36105086001607f1b886118e4565b61051291906118b9565b95505b6f8204055aaef1c8bd5c3259f4822735a286106105685761053a600160791b85611903565b93506f8204055aaef1c8bd5c3259f4822735a261055b6001607f1b886118e4565b61056591906118b9565b95505b6f810100ab00222d861931c15e39b44e9986106105bb5761058d600160781b85611903565b93506f810100ab00222d861931c15e39b44e996105ae6001607f1b886118e4565b6105b891906118b9565b95505b6f808040155aabbbe9451521693554f733861061060e576105e0600160771b85611903565b93506f808040155aabbbe9451521693554f7336106016001607f1b886118e4565b61060b91906118b9565b95505b61061c6001607f1b876118cd565b92508291506001607f1b61063083806118e4565b61063a91906118b9565b9050600160801b61064b84826118cd565b61065590846118e4565b61065f91906118b9565b6106699085611903565b93506001607f1b61067a82846118e4565b61068491906118b9565b9150600160811b6106a5846faaaaaaaaaaaaaaaaaaaaaaaaaaaaaaaa6118cd565b6106af90846118e4565b6106b991906118b9565b6106c39085611903565b93506001607f1b6106d482846118e4565b6106de91906118b9565b9150600360801b6106ff846f999999999999999999999999999999996118cd565b61070990846118e4565b61071391906118b9565b61071d9085611903565b93506001607f1b61072e82846118e4565b61073891906118b9565b9150600160821b610759846f924924924924924924924924924924926118cd565b61076390846118e4565b61076d91906118b9565b6107779085611903565b93506001607f1b61078882846118e4565b61079291906118b9565b9150600560801b6107b3846f8e38e38e38e38e38e38e38e38e38e38e6118cd565b6107bd90846118e4565b6107c791906118b9565b6107d19085611903565b93506001607f1b6107e282846118e4565b6107ec91906118b9565b9150600360811b61080d846f8ba2e8ba2e8ba2e8ba2e8ba2e8ba2e8b6118cd565b61081790846118e4565b61082191906118b9565b61082b9085611903565b93506001607f1b61083c82846118e4565b61084691906118b9565b9150600760801b610867846f89d89d89d89d89d89d89d89d89d89d896118cd565b61087190846118e4565b61087b91906118b9565b6108859085611903565b93506001607f1b61089682846118e4565b6108a091906118b9565b9150600160831b6108c1846f888888888888888888888888888888886118cd565b6108cb90846118e4565b6108d591906118b9565b6108df9085611903565b9695505050505050565b60006001607f1b82101561093f5760405162461bcd60e51b815260206004820152601760248201527f6e6f7420737570706f72742078203c2046495845445f3100000000000000000060448201526064016100b2565b6000600160801b831061098257600061096461095f6001607f1b866118b9565b611771565b60ff811694851c9490915061097e906001607f1b906118e4565b9150505b6001607f1b8311156109f757607f5b60ff8116156109f5576001607f1b6109a985806118e4565b6109b391906118b9565b9350600160801b84106109e557600193841c936109d0908261191b565b60ff166001901b826109e29190611903565b91505b6109ee8161193e565b9050610991565b505b6f05b9de1d10bf4103d647b0955897ba80610a226f03f80fe03f80fe03f80fe03f80fe03f8836118e4565b61022091906118b9565b6000808080610a3f6001607c1b8661195b565b91508190506001607f1b610a5382806118e4565b610a5d91906118b9565b9050610a71816710e1b3be415a00006118e4565b610a7b9084611903565b92506001607f1b610a8c83836118e4565b610a9691906118b9565b9050610aaa816705a0913f6b1e00006118e4565b610ab49084611903565b92506001607f1b610ac583836118e4565b610acf91906118b9565b9050610ae381670168244fdac780006118e4565b610aed9084611903565b92506001607f1b610afe83836118e4565b610b0891906118b9565b9050610b1b81664807432bc180006118e4565b610b259084611903565b92506001607f1b610b3683836118e4565b610b4091906118b9565b9050610b5381660c0135dca040006118e4565b610b5d9084611903565b92506001607f1b610b6e83836118e4565b610b7891906118b9565b9050610b8b816601b707b1cdc0006118e4565b610b959084611903565b92506001607f1b610ba683836118e4565b610bb091906118b9565b9050610bc2816536e0f639b8006118e4565b610bcc9084611903565b92506001607f1b610bdd83836118e4565b610be791906118b9565b9050610bf981650618fee9f8006118e4565b610c039084611903565b92506001607f1b610c1483836118e4565b610c1e91906118b9565b9050610c2f81649c197dcc006118e4565b610c399084611903565b92506001607f1b610c4a83836118e4565b610c5491906118b9565b9050610c6581640e30dce4006118e4565b610c6f9084611903565b92506001607f1b610c8083836118e4565b610c8a91906118b9565b9050610c9b8164012ebd13006118e4565b610ca59084611903565b92506001607f1b610cb683836118e4565b610cc091906118b9565b9050610cd0816317499f006118e4565b610cda9084611903565b92506001607f1b610ceb83836118e4565b610cf591906118b9565b9050610d05816301a9d4806118e4565b610d0f9084611903565b92506001607f1b610d2083836118e4565b610d2a91906118b9565b9050610d3981621c63806118e4565b610d439084611903565b92506001607f1b610d5483836118e4565b610d5e91906118b9565b9050610d6d816201c6386118e4565b610d779084611903565b92506001607f1b610d8883836118e4565b610d9291906118b9565b9050610da081611ab86118e4565b610daa9084611903565b92506001607f1b610dbb83836118e4565b610dc591906118b9565b9050610dd38161017c6118e4565b610ddd9084611903565b92506001607f1b610dee83836118e4565b610df891906118b9565b9050610e058160146118e4565b610e0f9084611903565b92506001607f1b610e2083836118e4565b610e2a91906118b9565b9050610e378160016118e4565b610e419084611903565b92506001607f1b82610e5b6721c3677c82b40000866118b9565b610e659190611903565b610e6f9190611903565b92506001607c1b851615610eb75770018ebef9eac820ae8682b9793ac6d1e776610eaa847001c3d6a24ed82218787d624d3e5eba95f96118e4565b610eb491906118b9565b92505b6001607d1b851615610efd577001368b2fc6f9609fe7aceb46aa619baed4610ef08470018ebef9eac820ae8682b9793ac6d1e7786118e4565b610efa91906118b9565b92505b6001607e1b851615610f42576fbc5ab1b16779be3575bd8f0520a9f21f610f35847001368b2fc6f9609fe7aceb46aa619baed56118e4565b610f3f91906118b9565b92505b6001607f1b851615610f86576f454aaa8efe072e7f6ddbab84b40a55c9610f79846fbc5ab1b16779be3575bd8f0520a9f21e6118e4565b610f8391906118b9565b92505b600160801b851615610fca576f0960aadc109e7a3bf4578099615711ea610fbd846f454aaa8efe072e7f6ddbab84b40a55c56118e4565b610fc791906118b9565b92505b600160811b85161561100d576e2bf84208204f5977f9a8cf01fdce3d611000846f0960aadc109e7a3bf4578099615711d76118e4565b61100a91906118b9565b92505b600160821b85161561104e576d03c6ab775dd0b95b4cbee7e65d11611041846e2bf84208204f5977f9a8cf01fdc3076118e4565b61104b91906118b9565b92505b50909392505050565b60006020607f5b60ff811661106d83600161196f565b60ff1610156110c05760006002611084838561196f565b61108e9190611994565b90508460008260ff16608081106110a7576110a76119b6565b0154106110b6578092506110ba565b8091505b5061105e565b8360008260ff16608081106110d7576110d76119b6565b0154106110e5579392505050565b8360008360ff16608081106110fc576110fc6119b6565b01541061002b575092915050565b6000828160ff841661111c83806118e4565b901c915061113a826f03442c4e6074a82f1797f72ac00000006118e4565b6111449082611903565b905060ff841661115486846118e4565b901c9150611172826f0116b96f757c380fb287fd0e400000006118e4565b61117c9082611903565b905060ff841661118c86846118e4565b901c91506111a9826e45ae5bdd5f0e03eca1ff43900000006118e4565b6111b39082611903565b905060ff84166111c386846118e4565b901c91506111e0826e0defabf91302cd95b9ffda500000006118e4565b6111ea9082611903565b905060ff84166111fa86846118e4565b901c9150611217826e02529ca9832b22439efff9b80000006118e4565b6112219082611903565b905060ff841661123186846118e4565b901c915061124d826d54f1cf12bd04e516b6da880000006118e4565b6112579082611903565b905060ff841661126786846118e4565b901c9150611283826d0a9e39e257a09ca2d6db510000006118e4565b61128d9082611903565b905060ff841661129d86846118e4565b901c91506112b9826d012e066e7b839fa050c3090000006118e4565b6112c39082611903565b905060ff84166112d386846118e4565b901c91506112ee826c1e33d7d926c329a1ad1a8000006118e4565b6112f89082611903565b905060ff841661130886846118e4565b901c9150611323826c02bee513bdb4a6b19b5f8000006118e4565b61132d9082611903565b905060ff841661133d86846118e4565b901c9150611357826b3a9316fa79b88eccf2a000006118e4565b6113619082611903565b905060ff841661137186846118e4565b901c915061138b826b048177ebe1fa8123752000006118e4565b6113959082611903565b905060ff84166113a586846118e4565b901c91506113be826a5263fe90242dcbacf000006118e4565b6113c89082611903565b905060ff84166113d886846118e4565b901c91506113f1826a057e22099c030d941000006118e4565b6113fb9082611903565b905060ff841661140b86846118e4565b901c9150611423826957e22099c030d94100006118e4565b61142d9082611903565b905060ff841661143d86846118e4565b901c91506114558269052b6b545699763100006118e4565b61145f9082611903565b905060ff841661146f86846118e4565b901c915061148682684985f67696bf7480006118e4565b6114909082611903565b905060ff84166114a086846118e4565b901c91506114b7826803dea12ea99e4980006118e4565b6114c19082611903565b905060ff84166114d186846118e4565b901c91506114e7826731880f2214b6e0006118e4565b6114f19082611903565b905060ff841661150186846118e4565b901c91506115178267025bcff56eb360006118e4565b6115219082611903565b905060ff841661153186846118e4565b901c915061154682661b722e10ab10006118e4565b6115509082611903565b905060ff841661156086846118e4565b901c9150611575826601317c700770006118e4565b61157f9082611903565b905060ff841661158f86846118e4565b901c91506115a382650cba84aafa006118e4565b6115ad9082611903565b905060ff84166115bd86846118e4565b901c91506115d0826482573a0a006118e4565b6115da9082611903565b905060ff84166115ea86846118e4565b901c91506115fd826405035ad9006118e4565b6116079082611903565b905060ff841661161786846118e4565b901c915061162982632f881b006118e4565b6116339082611903565b905060ff841661164386846118e4565b901c9150611655826301b293406118e4565b61165f9082611903565b905060ff841661166f86846118e4565b901c915061168082620efc406118e4565b61168a9082611903565b905060ff841661169a86846118e4565b901c91506116aa82617fe06118e4565b6116b49082611903565b905060ff84166116c486846118e4565b901c91506116d4826104206118e4565b6116de9082611903565b905060ff84166116ee86846118e4565b901c91506116fd8260216118e4565b6117079082611903565b905060ff841661171786846118e4565b901c91506117268260016118e4565b6117309082611903565b9050600160ff85161b856117546f0688589cc0e9505e2f2fee5580000000846118b9565b61175e9190611903565b6117689190611903565b95945050505050565b6000806101008310156117a4575b600183111561179f57600192831c92611798908261196f565b905061177f565b6117d8565b60805b60ff8116156117d657600160ff82161b84106117cb5760ff81169390931c92908117905b60011c607f166117a7565b505b92915050565b803563ffffffff811681146117f257600080fd5b919050565b600080600080600080600060e0888a03121561181257600080fd5b873596506020880135955060408801359450611830606089016117de565b935061183e608089016117de565b925061184c60a089016117de565b915061185a60c089016117de565b905092959891949750929550565b634e487b7160e01b600052601160045260246000fd5b600063ffffffff8381169083168181101561189b5761189b611868565b039392505050565b634e487b7160e01b600052601260045260246000fd5b6000826118c8576118c86118a3565b500490565b6000828210156118df576118df611868565b500390565b60008160001904831182151516156118fe576118fe611868565b500290565b6000821982111561191657611916611868565b500190565b600060ff821660ff84168082101561193557611935611868565b90039392505050565b600060ff82168061195157611951611868565b6000190192915050565b60008261196a5761196a6118a3565b500690565b600060ff821660ff84168060ff0382111561198c5761198c611868565b019392505050565b600060ff8316806119a7576119a76118a3565b8060ff84160491505092915050565b634e487b7160e01b600052603260045260246000fdfea264697066735822122006f1e52820b3f28e5ce2225a82c7fd8ef8d71574a03bc77f99559219c54c9e6764736f6c63430008090033",
    "linkReferences": {}
  },
  "methodIdentifiers": {
    "getAmountOut(uint256,uint256,uint256,uint32,uint32,uint32,uint32)": "f87576e8"
  },
  "id": 3
}