{
  "abi": [
    {
      "inputs": [
        {
          "internalType": "address",
          "name": "_WETH",
          "type": "address"
        }
      ],
      "stateMutability": "nonpayable",
      "type": "constructor"
    },
    {
      "anonymous": false,
      "inputs": [
        {
          "indexed": false,
          "internalType": "address",
          "name": "pair",
          "type": "address"
        },
        {
          "indexed": false,
          "internalType": "uint256",
          "name": "amountOut",
          "type": "uint256"
        },
        {
          "indexed": false,
          "internalType": "address",
          "name": "output",
          "type": "address"
        }
      ],
      "name": "Exchange",
      "type": "event"
    },
    {
      "anonymous": false,
      "inputs": [
        {
          "indexed": true,
          "internalType": "address",
          "name": "previousOwner",
          "type": "address"
        },
        {
          "indexed": true,
          "internalType": "address",
          "name": "newOwner",
          "type": "address"
        }
      ],
      "name": "OwnershipTransferred",
      "type": "event"
    },
    {
      "inputs": [],
      "name": "POOL_SWAP_CACHED_SLOT",
      "outputs": [
        {
          "internalType": "bytes32",
          "name": "",
          "type": "bytes32"
        }
      ],
      "stateMutability": "view",
      "type": "function"
    },
    {
      "inputs": [],
      "name": "WETH",
      "outputs": [
        {
          "internalType": "address",
          "name": "",
          "type": "address"
        }
      ],
      "stateMutability": "view",
      "type": "function"
    },
    {
      "inputs": [
        {
          "internalType": "bytes",
          "name": "data",
          "type": "bytes"
        }
      ],
      "name": "callBytes",
      "outputs": [],
      "stateMutability": "payable",
      "type": "function"
    },
    {
      "inputs": [
        {
          "internalType": "bytes4",
          "name": "",
          "type": "bytes4"
        }
      ],
      "name": "executorOf",
      "outputs": [
        {
          "internalType": "address",
          "name": "",
          "type": "address"
        }
      ],
      "stateMutability": "view",
      "type": "function"
    },
    {
      "inputs": [
        {
          "internalType": "address",
          "name": "tokenIn",
          "type": "address"
        },
        {
          "internalType": "address",
          "name": "tokenOut",
          "type": "address"
        },
        {
          "internalType": "address",
          "name": "to",
          "type": "address"
        },
        {
          "internalType": "bytes",
          "name": "destTokenFeeData",
          "type": "bytes"
        }
      ],
      "name": "finalTransactionProcessing",
      "outputs": [],
      "stateMutability": "nonpayable",
      "type": "function"
    },
    {
      "inputs": [
        {
          "components": [
            {
              "internalType": "bytes",
              "name": "data",
              "type": "bytes"
            },
            {
              "internalType": "bytes4",
              "name": "functionSelector",
              "type": "bytes4"
            }
          ],
          "internalType": "struct IMultihopRouter.Swap[][]",
          "name": "swapSequences",
          "type": "tuple[][]"
        },
        {
          "internalType": "address",
          "name": "tokenIn",
          "type": "address"
        },
        {
          "internalType": "address",
          "name": "tokenOut",
          "type": "address"
        },
        {
          "internalType": "uint256",
          "name": "minTotalAmountOut",
          "type": "uint256"
        },
        {
          "internalType": "address",
          "name": "to",
          "type": "address"
        },
        {
          "internalType": "uint256",
          "name": "deadline",
          "type": "uint256"
        },
        {
          "internalType": "bytes",
          "name": "destTokenFeeData",
          "type": "bytes"
        }
      ],
      "name": "multihopBatchSwapExactIn",
      "outputs": [
        {
          "internalType": "uint256",
          "name": "totalAmountOut",
          "type": "uint256"
        }
      ],
      "stateMutability": "payable",
      "type": "function"
    },
    {
      "inputs": [],
      "name": "owner",
      "outputs": [
        {
          "internalType": "address",
          "name": "",
          "type": "address"
        }
      ],
      "stateMutability": "view",
      "type": "function"
    },
    {
      "inputs": [],
      "name": "renounceOwnership",
      "outputs": [],
      "stateMutability": "nonpayable",
      "type": "function"
    },
    {
      "inputs": [
        {
          "internalType": "address",
          "name": "token",
          "type": "address"
        },
        {
          "internalType": "uint256",
          "name": "amount",
          "type": "uint256"
        }
      ],
      "name": "rescueFunds",
      "outputs": [],
      "stateMutability": "nonpayable",
      "type": "function"
    },
    {
      "inputs": [
        {
          "internalType": "int256",
          "name": "deltaQty0",
          "type": "int256"
        },
        {
          "internalType": "int256",
          "name": "deltaQty1",
          "type": "int256"
        },
        {
          "internalType": "bytes",
          "name": "data",
          "type": "bytes"
        }
      ],
      "name": "swapCallback",
      "outputs": [],
      "stateMutability": "nonpayable",
      "type": "function"
    },
    {
      "inputs": [
        {
          "internalType": "bytes",
          "name": "data",
          "type": "bytes"
        }
      ],
      "name": "swapSingleSequence",
      "outputs": [],
      "stateMutability": "nonpayable",
      "type": "function"
    },
    {
      "inputs": [
        {
          "internalType": "address",
          "name": "newOwner",
          "type": "address"
        }
      ],
      "name": "transferOwnership",
      "outputs": [],
      "stateMutability": "nonpayable",
      "type": "function"
    },
    {
      "inputs": [
        {
          "internalType": "int256",
          "name": "amount0Delta",
          "type": "int256"
        },
        {
          "internalType": "int256",
          "name": "amount1Delta",
          "type": "int256"
        },
        {
          "internalType": "bytes",
          "name": "_data",
          "type": "bytes"
        }
      ],
      "name": "uniswapV3SwapCallback",
      "outputs": [],
      "stateMutability": "nonpayable",
      "type": "function"
    },
    {
      "inputs": [
        {
          "internalType": "bytes4[]",
          "name": "functionSelectors",
          "type": "bytes4[]"
        },
        {
          "internalType": "address[]",
          "name": "executors",
          "type": "address[]"
        }
      ],
      "name": "updateBatchExecutors",
      "outputs": [],
      "stateMutability": "nonpayable",
      "type": "function"
    },
    {
      "inputs": [
        {
          "internalType": "bytes4",
          "name": "functionSelector",
          "type": "bytes4"
        },
        {
          "internalType": "address",
          "name": "executor",
          "type": "address"
        }
      ],
      "name": "updateExecutor",
      "outputs": [],
      "stateMutability": "nonpayable",
      "type": "function"
    },
    {
      "stateMutability": "payable",
      "type": "receive"
    }
  ],
  "bytecode": {
    "object": "0x60a06040523480156200001157600080fd5b5060405162002456380380620024568339810160408190526200003491620000a1565b6200003f3362000051565b6001600160a01b0316608052620000d3565b600080546001600160a01b038381166001600160a01b0319831681178455604051919092169283917f8be0079c531659141344cd1fd0a4f28419497f9722a3daafe3b4186f6b6457e09190a35050565b600060208284031215620000b457600080fd5b81516001600160a01b0381168114620000cc57600080fd5b9392505050565b6080516123446200011260003960008181610253015281816104590152818161062d015281816108eb01528181610de30152610ed101526123446000f3fe6080604052600436106100ec5760003560e01c80638da5cb5b1161008a578063d9c4535711610059578063d9c45357146102a9578063f2fde38b146102bc578063fa461e33146102dc578063fa483e72146102dc57600080fd5b80638da5cb5b146102035780639ccfd8c114610221578063ad5c464814610241578063d7068fe11461027557600080fd5b8063715018a6116100c6578063715018a61461018e578063774b6b7e146101a357806378e3214f146101c35780638b674f5d146101e357600080fd5b80630b129abf146100f85780633d4a345c1461014b5780634cd27d8c1461016d57600080fd5b366100f357005b600080fd5b34801561010457600080fd5b5061012e61011336600461171a565b6001602052600090815260409020546001600160a01b031681565b6040516001600160a01b0390911681526020015b60405180910390f35b34801561015757600080fd5b5061016b6101663660046118a5565b6102fc565b005b61018061017b366004611b1a565b610404565b604051908152602001610142565b34801561019a57600080fd5b5061016b610884565b3480156101af57600080fd5b5061016b6101be366004611c16565b6108ba565b3480156101cf57600080fd5b5061016b6101de366004611c91565b6109fd565b3480156101ef57600080fd5b5061016b6101fe366004611cbd565b610a4e565b34801561020f57600080fd5b506000546001600160a01b031661012e565b34801561022d57600080fd5b5061016b61023c366004611cfe565b610a9b565b34801561024d57600080fd5b5061012e7f000000000000000000000000000000000000000000000000000000000000000081565b34801561028157600080fd5b506101807f9932588c857b0691792b49bc2500676cf28f18fb0177f2f1fd3490fb07babb7281565b61016b6102b7366004611cbd565b610aff565b3480156102c857600080fd5b5061016b6102d7366004611d35565b610b40565b3480156102e857600080fd5b5061016b6102f7366004611d52565b610bdb565b6000546001600160a01b0316331461032f5760405162461bcd60e51b815260040161032690611da4565b60405180910390fd5b80518251146103715760405162461bcd60e51b815260206004820152600e60248201526d0d2dcecc2d8d2c840d8cadccee8d60931b6044820152606401610326565b60005b82518110156103ff5781818151811061038f5761038f611dd9565b6020026020010151600160008584815181106103ad576103ad611dd9565b6020908102919091018101516001600160e01b031916825281019190915260400160002080546001600160a01b0319166001600160a01b03929092169190911790556103f881611e05565b9050610374565b505050565b600082428110156104495760405162461bcd60e51b815260206004820152600f60248201526e149bdd5d195c8e8811561412549151608a1b6044820152606401610326565b61045288610be7565b156104cc577f00000000000000000000000000000000000000000000000000000000000000006001600160a01b031663d0e30db0346040518263ffffffff1660e01b81526004016000604051808303818588803b1580156104b257600080fd5b505af11580156104c6573d6000803e3d6000fd5b50505050505b60006104d788610be7565b610557576040516370a0823160e01b81526001600160a01b0387811660048301528916906370a082319060240160206040518083038186803b15801561051c57600080fd5b505afa158015610530573d6000803e3d6000fd5b505050506040513d601f19601f820116820180604052508101906105549190611e20565b90505b60005b8a518110156105fb576000805b8c838151811061057957610579611dd9565b6020026020010151518110156105da576105c68d848151811061059e5761059e611dd9565b602002602001015182815181106105b7576105b7611dd9565b60200260200101518284610c09565b9150806105d281611e05565b915050610567565b506105e58582611e39565b94505080806105f390611e05565b91505061055a565b50600061060789610dbe565b905061061289610be7565b1561069257604051632e1a7d4d60e01b8152600481018290527f00000000000000000000000000000000000000000000000000000000000000006001600160a01b031690632e1a7d4d90602401600060405180830381600087803b15801561067957600080fd5b505af115801561068d573d6000803e3d6000fd5b505050505b845115610737576000858060200190518101906106af9190611e5f565b80519091506001600160a01b0316156106f85780602001516106d55780604001516106fb565b6040810151612710906106e9908790611eac565b6106f39190611ecb565b6106fb565b60005b6040820181905261070c9086611eed565b945080604001518261071e9190611eed565b91506107358a826000015183604001516000610e9d565b505b6107448988836000610e9d565b6107598a886107528d610dbe565b6001610e9d565b61076289610be7565b156107ac57878410156107a75760405162461bcd60e51b815260206004820152600d60248201526c11549497d31253525517d3d555609a1b6044820152606401610326565b610876565b6040516370a0823160e01b81526001600160a01b038881166004830152899184918c16906370a082319060240160206040518083038186803b1580156107f157600080fd5b505afa158015610805573d6000803e3d6000fd5b505050506040513d601f19601f820116820180604052508101906108299190611e20565b6108339190611eed565b10156108765760405162461bcd60e51b81526020600482015260126024820152710f1b5a5b951bdd185b105b5bdd5b9d13dd5d60721b6044820152606401610326565b505050979650505050505050565b6000546001600160a01b031633146108ae5760405162461bcd60e51b815260040161032690611da4565b6108b86000610f50565b565b60006108c585610dbe565b90506108d085610be7565b1561095057604051632e1a7d4d60e01b8152600481018290527f00000000000000000000000000000000000000000000000000000000000000006001600160a01b031690632e1a7d4d90602401600060405180830381600087803b15801561093757600080fd5b505af115801561094b573d6000803e3d6000fd5b505050505b81156109da57600061096483850185611f04565b80519091506001600160a01b0316156109ad57806020015161098a5780604001516109b0565b60408101516127109061099e908490611eac565b6109a89190611ecb565b6109b0565b60005b604082018190526109c19083611eed565b91506109d886826000015183604001516000610e9d565b505b6109e78585836000610e9d565b6109f5868561075289610dbe565b505050505050565b6000546001600160a01b03163314610a275760405162461bcd60e51b815260040161032690611da4565b610a3082610be7565b15610a4357610a3f3382610fa0565b5050565b610a3f823383611072565b6000610a5c82840184611f51565b90506000805b8251811015610a9457610a808382815181106105b7576105b7611dd9565b915080610a8c81611e05565b915050610a62565b5050505050565b6000546001600160a01b03163314610ac55760405162461bcd60e51b815260040161032690611da4565b6001600160e01b031991909116600090815260016020526040902080546001600160a01b0319166001600160a01b03909216919091179055565b6000610b0d82840184611f8d565b9050610b3a816000015182602001518360400151846060015185608001518660a001518760c00151610404565b50505050565b6000546001600160a01b03163314610b6a5760405162461bcd60e51b815260040161032690611da4565b6001600160a01b038116610bcf5760405162461bcd60e51b815260206004820152602660248201527f4f776e61626c653a206e6577206f776e657220697320746865207a65726f206160448201526564647265737360d01b6064820152608401610326565b610bd881610f50565b50565b610b3a84848484611190565b6001600160a01b031673eeeeeeeeeeeeeeeeeeeeeeeeeeeeeeeeeeeeeeee1490565b6020808401516001600160e01b031981166000908152600190925260408220546001600160a01b031680610c9d5760405162461bcd60e51b815260206004820152603560248201527f4167677265676174696f6e4578656375746f723a204578656375746f7220666f6044820152741c8819195e08191bd95cdb89dd08195e1a5cdd1959605a1b6064820152608401610326565b600080826001600160a01b031684888a6000015189604051602001610cc4939291906120bc565b60408051601f1981840301815290829052610ce292916020016120e5565b60408051601f1981840301815290829052610cfc91612116565b600060405180830381855af49150503d8060008114610d37576040519150601f19603f3d011682016040523d82523d6000602084013e610d3c565b606091505b509150915081610d9e57610d85816040518060400160405280601781526020017f7377617053696e676c65506f6f6c206661696c65643a2000000000000000000081525061127d565b60405162461bcd60e51b81526004016103269190612132565b80806020019051810190610db29190611e20565b98975050505050505050565b6000610dc982610be7565b15610e6c576040516370a0823160e01b81523060048201527f00000000000000000000000000000000000000000000000000000000000000006001600160a01b0316906370a08231906024015b60206040518083038186803b158015610e2e57600080fd5b505afa158015610e42573d6000803e3d6000fd5b505050506040513d601f19601f82011682018060405250810190610e669190611e20565b92915050565b6040516370a0823160e01b81523060048201526001600160a01b038316906370a0823190602401610e16565b919050565b81610ea757610b3a565b610eb084610be7565b15610f45578015610f3657604051632e1a7d4d60e01b8152600481018390527f00000000000000000000000000000000000000000000000000000000000000006001600160a01b031690632e1a7d4d90602401600060405180830381600087803b158015610f1d57600080fd5b505af1158015610f31573d6000803e3d6000fd5b505050505b610f408383610fa0565b610b3a565b610b3a848484611072565b600080546001600160a01b038381166001600160a01b0319831681178455604051919092169283917f8be0079c531659141344cd1fd0a4f28419497f9722a3daafe3b4186f6b6457e09190a35050565b80610fa9575050565b604080516000808252602082019092526001600160a01b038416908390604051610fd39190612116565b60006040518083038185875af1925050503d8060008114611010576040519150601f19603f3d011682016040523d82523d6000602084013e611015565b606091505b50509050806103ff5760405162461bcd60e51b815260206004820152602360248201527f5472616e7366657248656c7065723a204554485f5452414e534645525f46414960448201526213115160ea1b6064820152608401610326565b8061107c57505050565b604080516001600160a01b038481166024830152604480830185905283518084039091018152606490920183526020820180516001600160e01b031663a9059cbb60e01b17905291516000928392908716916110d89190612116565b6000604051808303816000865af19150503d8060008114611115576040519150601f19603f3d011682016040523d82523d6000602084013e61111a565b606091505b50915091508180156111445750805115806111445750808060200190518101906111449190612145565b610a945760405162461bcd60e51b815260206004820152601f60248201527f5472616e7366657248656c7065723a205452414e534645525f4641494c4544006044820152606401610326565b600084138061119f5750600083135b6111a857600080fd5b7f9932588c857b0691792b49bc2500676cf28f18fb0177f2f1fd3490fb07babb72805490336001600160a01b038316146112245760405162461bcd60e51b815260206004820152601f60248201527f526f757465723a20696e76616c69642073656e6465722063616c6c6261636b006044820152606401610326565b600061123284860186612162565b90506000816000015180602001905181019061124e91906121e5565b9050600080891361125f5787611261565b885b905061127282602001513383611072565b505050505050505050565b606060448351101580156112b657508260008151811061129f5761129f611dd9565b6020910101516001600160f81b031916600160fb1b145b80156112e75750826001815181106112d0576112d0611dd9565b6020910101516001600160f81b03191660c360f81b145b801561131857508260028151811061130157611301611dd9565b6020910101516001600160f81b031916607960f81b145b801561134957508260038151811061133257611332611dd9565b6020910101516001600160f81b031916600560fd1b145b156113d3576044838101805190916113619190611e39565b845110156113a95760405162461bcd60e51b815260206004820152601560248201527424b73b30b634b2103932bb32b93a103932b0b9b7b760591b6044820152606401610326565b82816040516020016113bc929190612239565b604051602081830303815290604052915050610e66565b825160241480156114095750826000815181106113f2576113f2611dd9565b6020910101516001600160f81b031916602760f91b145b801561143a57508260018151811061142357611423611dd9565b6020910101516001600160f81b031916600960fb1b145b801561146b57508260028151811061145457611454611dd9565b6020910101516001600160f81b031916607b60f81b145b801561149c57508260038151811061148557611485611dd9565b6020910101516001600160f81b031916607160f81b145b156114c1576024830151826114b0826114f3565b6040516020016113bc929190612288565b816114cb8461151b565b6040516020016114dc9291906122bd565b604051602081830303815290604052905092915050565b6060610e668260405160200161150b91815260200190565b6040516020818303038152906040525b80516060906f181899199a1a9b1b9c1cb0b131b232b360811b90600090611543906002611eac565b61154e906002611e39565b6001600160401b038111156115655761156561173c565b6040519080825280601f01601f19166020018201604052801561158f576020820181803683370190505b509050600360fc1b816000815181106115aa576115aa611dd9565b60200101906001600160f81b031916908160001a905350600f60fb1b816001815181106115d9576115d9611dd9565b60200101906001600160f81b031916908160001a90535060005b84518110156116fa5782600486838151811061161157611611611dd9565b01602001516001600160f81b031916901c60f81c6010811061163557611635611dd9565b1a60f81b82611645836002611eac565b611650906002611e39565b8151811061166057611660611dd9565b60200101906001600160f81b031916908160001a9053508285828151811061168a5761168a611dd9565b60209101015160f81c600f16601081106116a6576116a6611dd9565b1a60f81b826116b6836002611eac565b6116c1906003611e39565b815181106116d1576116d1611dd9565b60200101906001600160f81b031916908160001a905350806116f281611e05565b9150506115f3565b509392505050565b80356001600160e01b031981168114610e9857600080fd5b60006020828403121561172c57600080fd5b61173582611702565b9392505050565b634e487b7160e01b600052604160045260246000fd5b604080519081016001600160401b03811182821017156117745761177461173c565b60405290565b604051606081016001600160401b03811182821017156117745761177461173c565b60405160e081016001600160401b03811182821017156117745761177461173c565b604051601f8201601f191681016001600160401b03811182821017156117e6576117e661173c565b604052919050565b60006001600160401b038211156118075761180761173c565b5060051b60200190565b6001600160a01b0381168114610bd857600080fd5b8035610e9881611811565b600082601f83011261184257600080fd5b81356020611857611852836117ee565b6117be565b82815260059290921b8401810191818101908684111561187657600080fd5b8286015b8481101561189a57803561188d81611811565b835291830191830161187a565b509695505050505050565b600080604083850312156118b857600080fd5b82356001600160401b03808211156118cf57600080fd5b818501915085601f8301126118e357600080fd5b813560206118f3611852836117ee565b82815260059290921b8401810191818101908984111561191257600080fd5b948201945b838610156119375761192886611702565b82529482019490820190611917565b9650508601359250508082111561194d57600080fd5b5061195a85828601611831565b9150509250929050565b600082601f83011261197557600080fd5b81356001600160401b0381111561198e5761198e61173c565b6119a1601f8201601f19166020016117be565b8181528460208386010111156119b657600080fd5b816020850160208301376000918101602001919091529392505050565b600082601f8301126119e457600080fd5b813560206119f4611852836117ee565b82815260059290921b84018101918181019086841115611a1357600080fd5b8286015b8481101561189a5780356001600160401b0380821115611a375760008081fd5b908801906040828b03601f1901811315611a515760008081fd5b611a59611752565b8784013583811115611a6b5760008081fd5b611a798d8a83880101611964565b825250611a87828501611702565b818901528652505050918301918301611a17565b600082601f830112611aac57600080fd5b81356020611abc611852836117ee565b82815260059290921b84018101918181019086841115611adb57600080fd5b8286015b8481101561189a5780356001600160401b03811115611afe5760008081fd5b611b0c8986838b01016119d3565b845250918301918301611adf565b600080600080600080600060e0888a031215611b3557600080fd5b87356001600160401b0380821115611b4c57600080fd5b611b588b838c01611a9b565b985060208a01359150611b6a82611811565b909650604089013590611b7c82611811565b90955060608901359450608089013590611b9582611811565b90935060a0890135925060c08901359080821115611bb257600080fd5b50611bbf8a828b01611964565b91505092959891949750929550565b60008083601f840112611be057600080fd5b5081356001600160401b03811115611bf757600080fd5b602083019150836020828501011115611c0f57600080fd5b9250929050565b600080600080600060808688031215611c2e57600080fd5b8535611c3981611811565b94506020860135611c4981611811565b93506040860135611c5981611811565b925060608601356001600160401b03811115611c7457600080fd5b611c8088828901611bce565b969995985093965092949392505050565b60008060408385031215611ca457600080fd5b8235611caf81611811565b946020939093013593505050565b60008060208385031215611cd057600080fd5b82356001600160401b03811115611ce657600080fd5b611cf285828601611bce565b90969095509350505050565b60008060408385031215611d1157600080fd5b611d1a83611702565b91506020830135611d2a81611811565b809150509250929050565b600060208284031215611d4757600080fd5b813561173581611811565b60008060008060608587031215611d6857600080fd5b843593506020850135925060408501356001600160401b03811115611d8c57600080fd5b611d9887828801611bce565b95989497509550505050565b6020808252818101527f4f776e61626c653a2063616c6c6572206973206e6f7420746865206f776e6572604082015260600190565b634e487b7160e01b600052603260045260246000fd5b634e487b7160e01b600052601160045260246000fd5b6000600019821415611e1957611e19611def565b5060010190565b600060208284031215611e3257600080fd5b5051919050565b60008219821115611e4c57611e4c611def565b500190565b8015158114610bd857600080fd5b600060608284031215611e7157600080fd5b611e7961177a565b8251611e8481611811565b81526020830151611e9481611e51565b60208201526040928301519281019290925250919050565b6000816000190483118215151615611ec657611ec6611def565b500290565b600082611ee857634e487b7160e01b600052601260045260246000fd5b500490565b600082821015611eff57611eff611def565b500390565b600060608284031215611f1657600080fd5b611f1e61177a565b8235611f2981611811565b81526020830135611f3981611e51565b60208201526040928301359281019290925250919050565b600060208284031215611f6357600080fd5b81356001600160401b03811115611f7957600080fd5b611f85848285016119d3565b949350505050565b600060208284031215611f9f57600080fd5b81356001600160401b0380821115611fb657600080fd5b9083019060e08286031215611fca57600080fd5b611fd261179c565b823582811115611fe157600080fd5b611fed87828601611a9b565b825250611ffc60208401611826565b602082015261200d60408401611826565b60408201526060830135606082015261202860808401611826565b608082015260a083013560a082015260c08301358281111561204957600080fd5b61205587828601611964565b60c08301525095945050505050565b60005b8381101561207f578181015183820152602001612067565b83811115610b3a5750506000910152565b600081518084526120a8816020860160208601612064565b601f01601f19169290920160200192915050565b8381526060602082015260006120d56060830185612090565b9050826040830152949350505050565b6001600160e01b0319831681528151600090612108816004850160208701612064565b919091016004019392505050565b60008251612128818460208701612064565b9190910192915050565b6020815260006117356020830184612090565b60006020828403121561215757600080fd5b815161173581611e51565b60006020828403121561217457600080fd5b81356001600160401b038082111561218b57600080fd5b908301906040828603121561219f57600080fd5b6121a7611752565b8235828111156121b657600080fd5b6121c287828601611964565b825250602083013592506121d583611811565b6020810192909252509392505050565b6000606082840312156121f757600080fd5b6121ff61177a565b825161220a81611811565b8152602083015161221a81611811565b6020820152604083015161222d81611811565b60408201529392505050565b6000835161224b818460208801612064565b6508ae4e4dee4560d31b908301908152835161226e816006840160208801612064565b602960f81b60069290910191820152600701949350505050565b6000835161229a818460208801612064565b650a0c2dcd2c6560d31b908301908152835161226e816006840160208801612064565b600083516122cf818460208801612064565b670aadcd6dcdeeedc560c31b90830190815283516122f4816008840160208801612064565b602960f81b6008929091019182015260090194935050505056fea2646970667358221220c2c7167f17bf89d29174a356f1fe51b2d1965ad8fd9ac0eb34490d2b334f083564736f6c63430008090033",
    "linkReferences": {}
  },
  "methodIdentifiers": {
    "POOL_SWAP_CACHED_SLOT()": "d7068fe1",
    "WETH()": "ad5c4648",
    "callBytes(bytes)": "d9c45357",
    "executorOf(bytes4)": "0b129abf",
    "finalTransactionProcessing(address,address,address,bytes)": "774b6b7e",
    "multihopBatchSwapExactIn((bytes,bytes4)[][],address,address,uint256,address,uint256,bytes)": "4cd27d8c",
    "owner()": "8da5cb5b",
    "renounceOwnership()": "715018a6",
    "rescueFunds(address,uint256)": "78e3214f",
    "swapCallback(int256,int256,bytes)": "fa483e72",
    "swapSingleSequence(bytes)": "8b674f5d",
    "transferOwnership(address)": "f2fde38b",
    "uniswapV3SwapCallback(int256,int256,bytes)": "fa461e33",
    "updateBatchExecutors(bytes4[],address[])": "3d4a345c",
    "updateExecutor(bytes4,address)": "9ccfd8c1"
  },
  "id": 0
}