{
  "abi": [
    {
      "inputs": [
        {
          "internalType": "address",
          "name": "_WETH",
          "type": "address"
        }
      ],
      "stateMutability": "nonpayable",
      "type": "constructor"
    },
    {
      "anonymous": false,
      "inputs": [
        {
          "indexed": false,
          "internalType": "bytes",
          "name": "clientData",
          "type": "bytes"
        }
      ],
      "name": "ClientData",
      "type": "event"
    },
    {
      "anonymous": false,
      "inputs": [
        {
          "indexed": false,
          "internalType": "string",
          "name": "reason",
          "type": "string"
        }
      ],
      "name": "Error",
      "type": "event"
    },
    {
      "anonymous": false,
      "inputs": [
        {
          "indexed": false,
          "internalType": "address",
          "name": "pair",
          "type": "address"
        },
        {
          "indexed": false,
          "internalType": "uint256",
          "name": "amountOut",
          "type": "uint256"
        },
        {
          "indexed": false,
          "internalType": "address",
          "name": "output",
          "type": "address"
        }
      ],
      "name": "Exchange",
      "type": "event"
    },
    {
      "anonymous": false,
      "inputs": [
        {
          "indexed": false,
          "internalType": "address",
          "name": "token",
          "type": "address"
        },
        {
          "indexed": false,
          "internalType": "uint256",
          "name": "totalAmount",
          "type": "uint256"
        },
        {
          "indexed": false,
          "internalType": "uint256",
          "name": "totalFee",
          "type": "uint256"
        },
        {
          "indexed": false,
          "internalType": "address[]",
          "name": "recipients",
          "type": "address[]"
        },
        {
          "indexed": false,
          "internalType": "uint256[]",
          "name": "amounts",
          "type": "uint256[]"
        },
        {
          "indexed": false,
          "internalType": "bool",
          "name": "isBps",
          "type": "bool"
        }
      ],
      "name": "Fee",
      "type": "event"
    },
    {
      "anonymous": false,
      "inputs": [
        {
          "indexed": true,
          "internalType": "address",
          "name": "previousOwner",
          "type": "address"
        },
        {
          "indexed": true,
          "internalType": "address",
          "name": "newOwner",
          "type": "address"
        }
      ],
      "name": "OwnershipTransferred",
      "type": "event"
    },
    {
      "anonymous": false,
      "inputs": [
        {
          "indexed": false,
          "internalType": "address",
          "name": "sender",
          "type": "address"
        },
        {
          "indexed": false,
          "internalType": "contract IERC20",
          "name": "srcToken",
          "type": "address"
        },
        {
          "indexed": false,
          "internalType": "contract IERC20",
          "name": "dstToken",
          "type": "address"
        },
        {
          "indexed": false,
          "internalType": "address",
          "name": "dstReceiver",
          "type": "address"
        },
        {
          "indexed": false,
          "internalType": "uint256",
          "name": "spentAmount",
          "type": "uint256"
        },
        {
          "indexed": false,
          "internalType": "uint256",
          "name": "returnAmount",
          "type": "uint256"
        }
      ],
      "name": "Swapped",
      "type": "event"
    },
    {
      "inputs": [],
      "name": "WETH",
      "outputs": [
        {
          "internalType": "address",
          "name": "",
          "type": "address"
        }
      ],
      "stateMutability": "view",
      "type": "function"
    },
    {
      "inputs": [
        {
          "internalType": "address",
          "name": "",
          "type": "address"
        }
      ],
      "name": "isWhitelist",
      "outputs": [
        {
          "internalType": "bool",
          "name": "",
          "type": "bool"
        }
      ],
      "stateMutability": "view",
      "type": "function"
    },
    {
      "inputs": [],
      "name": "owner",
      "outputs": [
        {
          "internalType": "address",
          "name": "",
          "type": "address"
        }
      ],
      "stateMutability": "view",
      "type": "function"
    },
    {
      "inputs": [],
      "name": "renounceOwnership",
      "outputs": [],
      "stateMutability": "nonpayable",
      "type": "function"
    },
    {
      "inputs": [
        {
          "internalType": "address",
          "name": "token",
          "type": "address"
        },
        {
          "internalType": "uint256",
          "name": "amount",
          "type": "uint256"
        }
      ],
      "name": "rescueFunds",
      "outputs": [],
      "stateMutability": "nonpayable",
      "type": "function"
    },
    {
      "inputs": [
        {
          "components": [
            {
              "internalType": "address",
              "name": "callTarget",
              "type": "address"
            },
            {
              "internalType": "address",
              "name": "approveTarget",
              "type": "address"
            },
            {
              "internalType": "bytes",
              "name": "targetData",
              "type": "bytes"
            },
            {
              "components": [
                {
                  "internalType": "contract IERC20",
                  "name": "srcToken",
                  "type": "address"
                },
                {
                  "internalType": "contract IERC20",
                  "name": "dstToken",
                  "type": "address"
                },
                {
                  "internalType": "address[]",
                  "name": "srcReceivers",
                  "type": "address[]"
                },
                {
                  "internalType": "uint256[]",
                  "name": "srcAmounts",
                  "type": "uint256[]"
                },
                {
                  "internalType": "address[]",
                  "name": "feeReceivers",
                  "type": "address[]"
                },
                {
                  "internalType": "uint256[]",
                  "name": "feeAmounts",
                  "type": "uint256[]"
                },
                {
                  "internalType": "address",
                  "name": "dstReceiver",
                  "type": "address"
                },
                {
                  "internalType": "uint256",
                  "name": "amount",
                  "type": "uint256"
                },
                {
                  "internalType": "uint256",
                  "name": "minReturnAmount",
                  "type": "uint256"
                },
                {
                  "internalType": "uint256",
                  "name": "flags",
                  "type": "uint256"
                },
                {
                  "internalType": "bytes",
                  "name": "permit",
                  "type": "bytes"
                }
              ],
              "internalType": "struct MetaAggregationRouterV2.SwapDescriptionV2",
              "name": "desc",
              "type": "tuple"
            },
            {
              "internalType": "bytes",
              "name": "clientData",
              "type": "bytes"
            }
          ],
          "internalType": "struct MetaAggregationRouterV2.SwapExecutionParams",
          "name": "execution",
          "type": "tuple"
        }
      ],
      "name": "swap",
      "outputs": [
        {
          "internalType": "uint256",
          "name": "returnAmount",
          "type": "uint256"
        },
        {
          "internalType": "uint256",
          "name": "gasUsed",
          "type": "uint256"
        }
      ],
      "stateMutability": "payable",
      "type": "function"
    },
    {
      "inputs": [
        {
          "components": [
            {
              "internalType": "address",
              "name": "callTarget",
              "type": "address"
            },
            {
              "internalType": "address",
              "name": "approveTarget",
              "type": "address"
            },
            {
              "internalType": "bytes",
              "name": "targetData",
              "type": "bytes"
            },
            {
              "components": [
                {
                  "internalType": "contract IERC20",
                  "name": "srcToken",
                  "type": "address"
                },
                {
                  "internalType": "contract IERC20",
                  "name": "dstToken",
                  "type": "address"
                },
                {
                  "internalType": "address[]",
                  "name": "srcReceivers",
                  "type": "address[]"
                },
                {
                  "internalType": "uint256[]",
                  "name": "srcAmounts",
                  "type": "uint256[]"
                },
                {
                  "internalType": "address[]",
                  "name": "feeReceivers",
                  "type": "address[]"
                },
                {
                  "internalType": "uint256[]",
                  "name": "feeAmounts",
                  "type": "uint256[]"
                },
                {
                  "internalType": "address",
                  "name": "dstReceiver",
                  "type": "address"
                },
                {
                  "internalType": "uint256",
                  "name": "amount",
                  "type": "uint256"
                },
                {
                  "internalType": "uint256",
                  "name": "minReturnAmount",
                  "type": "uint256"
                },
                {
                  "internalType": "uint256",
                  "name": "flags",
                  "type": "uint256"
                },
                {
                  "internalType": "bytes",
                  "name": "permit",
                  "type": "bytes"
                }
              ],
              "internalType": "struct MetaAggregationRouterV2.SwapDescriptionV2",
              "name": "desc",
              "type": "tuple"
            },
            {
              "internalType": "bytes",
              "name": "clientData",
              "type": "bytes"
            }
          ],
          "internalType": "struct MetaAggregationRouterV2.SwapExecutionParams",
          "name": "execution",
          "type": "tuple"
        }
      ],
      "name": "swapGeneric",
      "outputs": [
        {
          "internalType": "uint256",
          "name": "returnAmount",
          "type": "uint256"
        },
        {
          "internalType": "uint256",
          "name": "gasUsed",
          "type": "uint256"
        }
      ],
      "stateMutability": "payable",
      "type": "function"
    },
    {
      "inputs": [
        {
          "internalType": "contract IAggregationExecutor",
          "name": "caller",
          "type": "address"
        },
        {
          "components": [
            {
              "internalType": "contract IERC20",
              "name": "srcToken",
              "type": "address"
            },
            {
              "internalType": "contract IERC20",
              "name": "dstToken",
              "type": "address"
            },
            {
              "internalType": "address[]",
              "name": "srcReceivers",
              "type": "address[]"
            },
            {
              "internalType": "uint256[]",
              "name": "srcAmounts",
              "type": "uint256[]"
            },
            {
              "internalType": "address[]",
              "name": "feeReceivers",
              "type": "address[]"
            },
            {
              "internalType": "uint256[]",
              "name": "feeAmounts",
              "type": "uint256[]"
            },
            {
              "internalType": "address",
              "name": "dstReceiver",
              "type": "address"
            },
            {
              "internalType": "uint256",
              "name": "amount",
              "type": "uint256"
            },
            {
              "internalType": "uint256",
              "name": "minReturnAmount",
              "type": "uint256"
            },
            {
              "internalType": "uint256",
              "name": "flags",
              "type": "uint256"
            },
            {
              "internalType": "bytes",
              "name": "permit",
              "type": "bytes"
            }
          ],
          "internalType": "struct MetaAggregationRouterV2.SwapDescriptionV2",
          "name": "desc",
          "type": "tuple"
        },
        {
          "internalType": "bytes",
          "name": "executorData",
          "type": "bytes"
        },
        {
          "internalType": "bytes",
          "name": "clientData",
          "type": "bytes"
        }
      ],
      "name": "swapSimpleMode",
      "outputs": [
        {
          "internalType": "uint256",
          "name": "returnAmount",
          "type": "uint256"
        },
        {
          "internalType": "uint256",
          "name": "gasUsed",
          "type": "uint256"
        }
      ],
      "stateMutability": "nonpayable",
      "type": "function"
    },
    {
      "inputs": [
        {
          "internalType": "address",
          "name": "newOwner",
          "type": "address"
        }
      ],
      "name": "transferOwnership",
      "outputs": [],
      "stateMutability": "nonpayable",
      "type": "function"
    },
    {
      "inputs": [
        {
          "internalType": "address[]",
          "name": "addr",
          "type": "address[]"
        },
        {
          "internalType": "bool[]",
          "name": "value",
          "type": "bool[]"
        }
      ],
      "name": "updateWhitelist",
      "outputs": [],
      "stateMutability": "nonpayable",
      "type": "function"
    },
    {
      "stateMutability": "payable",
      "type": "receive"
    }
  ],
  "bytecode": {
    "object": "0x60a06040523480156200001157600080fd5b50604051620037cf380380620037cf8339810160408190526200003491620000a1565b6200003f3362000051565b6001600160a01b0316608052620000d3565b600080546001600160a01b038381166001600160a01b0319831681178455604051919092169283917f8be0079c531659141344cd1fd0a4f28419497f9722a3daafe3b4186f6b6457e09190a35050565b600060208284031215620000b457600080fd5b81516001600160a01b0381168114620000cc57600080fd5b9392505050565b6080516136d2620000fd600039600081816101890152818161083d0152610c0401526136d26000f3fe6080604052600436106100955760003560e01c80638da5cb5b116100595780638da5cb5b14610145578063ad5c464814610177578063c683630d146101ab578063e21fd0e9146101eb578063f2fde38b146101fe57600080fd5b806333320de3146100a157806359e50fed146100c3578063715018a6146100f057806378e3214f146101055780638af033fb1461012557600080fd5b3661009c57005b600080fd5b3480156100ad57600080fd5b506100c16100bc366004612c7f565b61021e565b005b6100d66100d1366004612d42565b6102e2565b604080519283526020830191909152015b60405180910390f35b3480156100fc57600080fd5b506100c16108da565b34801561011157600080fd5b506100c1610120366004612d7c565b610910565b34801561013157600080fd5b506100d6610140366004612fed565b610961565b34801561015157600080fd5b506000546001600160a01b03165b6040516001600160a01b0390911681526020016100e7565b34801561018357600080fd5b5061015f7f000000000000000000000000000000000000000000000000000000000000000081565b3480156101b757600080fd5b506101db6101c6366004613093565b60016020526000908152604090205460ff1681565b60405190151581526020016100e7565b6100d66101f9366004612d42565b610c9c565b34801561020a57600080fd5b506100c1610219366004613093565b611001565b6000546001600160a01b031633146102515760405162461bcd60e51b8152600401610248906130b0565b60405180910390fd5b805182511461025f57600080fd5b60005b82518110156102dd5781818151811061027d5761027d6130e5565b60200260200101516001600085848151811061029b5761029b6130e5565b6020908102919091018101516001600160a01b03168252810191909152604001600020805460ff19169115159190911790556102d681613111565b9050610262565b505050565b60008060005a9050600160006102fb6020870187613093565b6001600160a01b0316815260208101919091526040016000205460ff1661035e5760405162461bcd60e51b81526020600482015260176024820152761059191c995cdcc81b9bdd081dda1a5d195b1a5cdd1959604a1b6044820152606401610248565b61036b6020850185613093565b6001600160a01b03166103846040860160208701613093565b6001600160a01b0316141580156103b4575060006103a86040860160208701613093565b6001600160a01b031614155b1561043057600160006103cd6040870160208801613093565b6001600160a01b0316815260208101919091526040016000205460ff166104305760405162461bcd60e51b81526020600482015260176024820152761059191c995cdcc81b9bdd081dda1a5d195b1a5cdd1959604a1b6044820152606401610248565b600061043f606086018661312c565b6104489061314d565b905060008161010001511161049f5760405162461bcd60e51b815260206004820152601960248201527f496e76616c6964206d696e2072657475726e20616d6f756e74000000000000006044820152606401610248565b6104a88161109c565b6104c081600001518260e0015183610140015161116a565b60006104d2826101200151608061131c565b905060008060006001600160a01b03168460c001516001600160a01b0316146104ff578360c00151610501565b335b9050610513846101200151604061131c565b6106135761053584600001513386608001518760a001518860e0015188611328565b60e08501528351600090610548906114ba565b1580156105605750610560856101200151600461131c565b15610578576105708533306114dc565b60e087015290505b6105933361058c60408c0160208d01613093565b878461157c565b6106086105a360208b018b613093565b6105b060408c018c613159565b8080601f0160208091040260200160405190810160405280939291908181526020018383808284376000920191909152505089518a92506105f191506114ba565b6105fc576000610602565b8860e001515b8661171c565b985092506107459050565b600061062285600001516114ba565b15801561063a575061063a856101200151600461131c565b156106525761064a8533306114dc565b60e087015290505b60006106628660200151846118e3565b905061067f3361067860408d0160208e01613093565b888561157c565b6106f061068f60208c018c613093565b61069c60408d018d613159565b8080601f016020809104026020016040519081016040528093929190818152602001838380828437600092019190915250508a518b92506106dd91506114ba565b6106e85760006106ea565b345b3061171c565b809a508195505050600061071487602001513089608001518a60a001518e8b611328565b90506107268760200151308684611984565b50806107368760200151856118e3565b610740919061319f565b985050505b610750828886611a33565b835161075b906114ba565b1580156107815750600061077560408a0160208b01613093565b6001600160a01b031614155b156107ac576107ac61079960408a0160208b01613093565b85516001600160a01b0316906000611b0b565b835160208501516040517fd6d4f5681c246c9f42c203e287975af1601f8df8035a9251f79aab5c8f09e2f8926107e9923392869088908e906131b6565b60405180910390a17fddac40937f35385a34f721af292e5a83fc5b840f722bff57c2fc71adba708c4861081f60208a018a613093565b8861082d87602001516114ba565b61083b57866020015161085d565b7f00000000000000000000000000000000000000000000000000000000000000005b604080516001600160a01b039485168152602081019390935292168183015290519081900360600190a17f095e66fa4dd6a6f7b43fb8444a7bd0edb870508c7abf639bc216efb0bcff97796108b560808a018a613159565b6040516108c39291906131f0565b60405180910390a15a850395505050505050915091565b6000546001600160a01b031633146109045760405162461bcd60e51b8152600401610248906130b0565b61090e6000611c62565b565b6000546001600160a01b0316331461093a5760405162461bcd60e51b8152600401610248906130b0565b610943826114ba565b15610956576109523382611cb2565b5050565b610952823383611d84565b60008060005a905061097688600001516114ba565b156109ce5760405162461bcd60e51b815260206004820152602260248201527f737263206973206574682c2073686f756c6420757365206e6f726d616c207377604482015261061760f41b6064820152608401610248565b6109e688600001518960e001518a610140015161116a565b60c08801516000906001600160a01b031615610a06578860c00151610a08565b335b90506000610a1c8a6101200151608061131c565b9050610a2e8a6101200151604061131c565b610a5a57610a508a60000151338c608001518d60a001518e60e0015186611328565b60e08b0152610a5e565b3091505b506000610a6f8a60200151836118e3565b90506000610a818b60000151336118e3565b9050610a9e8c8c600001518d60e001518e60200151878f8f611ea2565b81610aad8c60200151856118e3565b610ab7919061319f565b9550610ac98b6101200151604061131c565b15610b58576000610ae08c6101200151608061131c565b9050610afc8c60200151308e608001518f60a001518b86611328565b60208d015160c08e015191985091506001600160a01b031615610b23578b60c00151610b25565b335b9350610b3181856118e3565b9250610b3f8130868a611984565b82610b4a82866118e3565b610b54919061319f565b9650505b6000610b688c60000151336118e3565b610b72908361319f565b9050610b7f81888e611a33565b8b5160208d01516040517fd6d4f5681c246c9f42c203e287975af1601f8df8035a9251f79aab5c8f09e2f892610bbc923392899087908e906131b6565b60405180910390a17fddac40937f35385a34f721af292e5a83fc5b840f722bff57c2fc71adba708c488d88610bf48f602001516114ba565b610c02578e60200151610c24565b7f00000000000000000000000000000000000000000000000000000000000000005b604080516001600160a01b039485168152602081019390935292168183015290519081900360600190a17f095e66fa4dd6a6f7b43fb8444a7bd0edb870508c7abf639bc216efb0bcff97798989604051610c7f9291906131f0565b60405180910390a15a850395505050505050965096945050505050565b60008060005a90506000610cb3606086018661312c565b610cbc9061314d565b9050600081610100015111610d135760405162461bcd60e51b815260206004820152601a60248201527f4d696e2072657475726e2073686f756c64206e6f7420626520300000000000006044820152606401610248565b6000610d226040870187613159565b905011610d715760405162461bcd60e51b815260206004820152601f60248201527f6578656375746f72446174612073686f756c64206265206e6f74207a65726f006044820152606401610248565b610d81816101200151602061131c565b15610dbc57610db1610d966020870187613093565b82610da46040890189613159565b61014060808b018b613159565b935093505050915091565b610dc58161109c565b610ddd81600001518260e0015183610140015161116a565b6000610def826101200151608061131c565b905060008060006001600160a01b03168460c001516001600160a01b031614610e1c578360c00151610e1e565b335b9050610e30846101200151604061131c565b610f0d578351608085015160a0860151610e6692913391610e50846114ba565b610e5e578860e00151610e60565b345b88611328565b60e0850152610e78336000868161157c565b610f04610e8860208a018a613093565b63d9c4535760e01b610e9d60408c018c613159565b604051602401610eae9291906131f0565b60408051601f198184030181529190526020810180516001600160e01b03166001600160e01b03199093169290921790915286518790610eed906114ba565b610ef8576000610efe565b8760e001515b8561171c565b97509150610ff6565b6000610f1d8560200151836118e3565b9050610f2d33600087600061157c565b610fa2610f3d60208b018b613093565b63d9c4535760e01b610f5260408d018d613159565b604051602401610f639291906131f0565b60408051601f198184030181529190526020810180516001600160e01b03166001600160e01b031990931692909217909152875188906106dd906114ba565b80995081945050506000610fc686602001513088608001518960a001518d8a611328565b9050610fd88660200151308584611984565b5080610fe88660200151846118e3565b610ff2919061319f565b9750505b6107ac828886611a33565b6000546001600160a01b0316331461102b5760405162461bcd60e51b8152600401610248906130b0565b6001600160a01b0381166110905760405162461bcd60e51b815260206004820152602660248201527f4f776e61626c653a206e6577206f776e657220697320746865207a65726f206160448201526564647265737360d01b6064820152608401610248565b61109981611c62565b50565b60006110ab82600001516114ba565b90506110bd826101200151600261131c565b1561111657806110ce5760006110d4565b8160e001515b34116109525760405162461bcd60e51b8152602060048201526011602482015270496e76616c6964206d73672e76616c756560781b6044820152606401610248565b80611122576000611128565b8160e001515b34146109525760405162461bcd60e51b8152602060048201526011602482015270496e76616c6964206d73672e76616c756560781b6044820152606401610248565b805160e014156102dd57600080846001600160a01b031663d505accf60e01b8460405160200161119b92919061324b565b60408051601f19818403018152908290526111b59161327c565b6000604051808303816000865af19150503d80600081146111f2576040519150601f19603f3d011682016040523d82523d6000602084013e6111f7565b606091505b509150915081611315576000611239826040518060400160405280601481526020017302832b936b4ba1031b0b636103330b4b632b21d160651b815250612262565b604051636eb1769f60e11b815233600482015230602482015290915085906001600160a01b0388169063dd62ed3e9060440160206040518083038186803b15801561128357600080fd5b505afa158015611297573d6000803e3d6000fd5b505050506040513d601f19601f820116820180604052508101906112bb919061328e565b10156112db578060405162461bcd60e51b815260040161024891906132d3565b7f08c379a0afcc32b1a39302f7cb8073359698411ab5fd6e3edb2c02c0b5fba8aa8160405161130a91906132d3565b60405180910390a15b505b5050505050565b81811615155b92915050565b8351829080156114af57600061133d896114ba565b905060006113568a83611350578a6118e3565b306118e3565b9050828751146113995760405162461bcd60e51b815260206004820152600e60248201526d092dcecc2d8d2c840d8cadccee8d60931b6044820152606401610248565b60005b83811015611440576000866113ca578882815181106113bd576113bd6130e5565b60200260200101516113fc565b6127108983815181106113df576113df6130e5565b6020026020010151896113f291906132e6565b6113fc9190613305565b905061142f8c8561140d578c61140f565b305b8c8581518110611421576114216130e5565b602002602001015184611984565b5061143981613111565b905061139c565b5060006114528b84611350578b6118e3565b61145c908361319f565b9050611468818861319f565b94507f4c39b7ce5f4f514f45cb6f82b171b8b0b7f2cbf488ad28e4eff451588e2f014b8b88838c8c8b6040516114a396959493929190613327565b60405180910390a15050505b509695505050505050565b6001600160a01b031673eeeeeeeeeeeeeeeeeeeeeeeeeeeeeeeeeeeeeeee1490565b6000806114ec85600001516114ba565b1561152e5760405162461bcd60e51b8152602060048201526012602482015271086d8c2d2da40e8ded6cadc40d2e6408aa8960731b6044820152606401610248565b600061153e8660000151306118e3565b9050611554866000015186868960e00151611984565b60019250806115678760000151306118e3565b611571919061319f565b915050935093915050565b816060015151826040015151146115d55760405162461bcd60e51b815260206004820152601b60248201527f696e76616c696420737263526563656976657273206c656e67746800000000006044820152606401610248565b8015611628576115ec82610120015161010061131c565b801561160057506001600160a01b03831615155b156116285760e08201518251611623916001600160a01b039091169085906124d8565b611716565b6000805b8360400151518110156116ca578360600151818151811061164f5761164f6130e5565b60200260200101518261166291906133d0565b91506116ba8460000151846116775787611679565b305b8660400151848151811061168f5761168f6130e5565b6020026020010151876060015185815181106116ad576116ad6130e5565b6020026020010151611984565b6116c381613111565b905061162c565b508260e001518111156113155760405162461bcd60e51b8152602060048201526014602482015273115e18d9595919590819195cd8cb985b5bdd5b9d60621b6044820152606401610248565b50505050565b600080600061172f8660200151856118e3565b905060006117418760000151306118e3565b905060006117538860200151306118e3565b905060008a6001600160a01b0316888b604051611770919061327c565b60006040518083038185875af1925050503d80600081146117ad576040519150601f19603f3d011682016040523d82523d6000602084013e6117b2565b606091505b50509050806117f15760405162461bcd60e51b815260206004820152600b60248201526a10d85b1b0819985a5b195960aa1b6044820152606401610248565b506001600160a01b0386163014611831576000816118138a60200151306118e3565b61181d919061319f565b905061182f8960200151308984611984565b505b826118408960200151886118e3565b61184a919061319f565b93508760e001519450611863886101200151600161131c565b801561188b57508751611875906114ba565b8061188b575061188b886101200151600461131c565b156118d65760006118a08960000151306118e3565b90508281146118d4576118b3818461319f565b95506118d489600001513033898d60e001516118cf919061319f565b611984565b505b5050509550959350505050565b60006118ee836114ba565b1561190457506001600160a01b03811631611322565b6040516370a0823160e01b81526001600160a01b0383811660048301528416906370a082319060240160206040518083038186803b15801561194557600080fd5b505afa158015611959573d6000803e3d6000fd5b505050506040513d601f19601f8201168201806040525081019061197d919061328e565b9050611322565b816001600160a01b0316836001600160a01b031614156119dc5760405162461bcd60e51b81526020600482015260136024820152721cd95b99195c88084f481c9958da5c1a595b9d606a1b6044820152606401610248565b8015611716576119eb846114ba565b15611a0b576001600160a01b038316301415611623576116238282611cb2565b6001600160a01b038316301415611a2757611623848383611d84565b61171684848484612599565b611a43816101200151600161131c565b15611ab65782816101000151611a5991906132e6565b60e0820151611a6890846132e6565b10156102dd5760405162461bcd60e51b815260206004820152601b60248201527f52657475726e20616d6f756e74206973206e6f7420656e6f75676800000000006044820152606401610248565b8061010001518210156102dd5760405162461bcd60e51b815260206004820152601b60248201527f52657475726e20616d6f756e74206973206e6f7420656e6f75676800000000006044820152606401610248565b801580611b945750604051636eb1769f60e11b81523060048201526001600160a01b03838116602483015284169063dd62ed3e9060440160206040518083038186803b158015611b5a57600080fd5b505afa158015611b6e573d6000803e3d6000fd5b505050506040513d601f19601f82011682018060405250810190611b92919061328e565b155b611bff5760405162461bcd60e51b815260206004820152603660248201527f5361666545524332303a20617070726f76652066726f6d206e6f6e2d7a65726f60448201527520746f206e6f6e2d7a65726f20616c6c6f77616e636560501b6064820152608401610248565b6040516001600160a01b0383166024820152604481018290526102dd90849063095ea7b360e01b906064015b60408051601f198184030181529190526020810180516001600160e01b03166001600160e01b0319909316929092179091526126cb565b600080546001600160a01b038381166001600160a01b0319831681178455604051919092169283917f8be0079c531659141344cd1fd0a4f28419497f9722a3daafe3b4186f6b6457e09190a35050565b80611cbb575050565b604080516000808252602082019092526001600160a01b038416908390604051611ce5919061327c565b60006040518083038185875af1925050503d8060008114611d22576040519150601f19603f3d011682016040523d82523d6000602084013e611d27565b606091505b50509050806102dd5760405162461bcd60e51b815260206004820152602360248201527f5472616e7366657248656c7065723a204554485f5452414e534645525f46414960448201526213115160ea1b6064820152608401610248565b80611d8e57505050565b604080516001600160a01b038481166024830152604480830185905283518084039091018152606490920183526020820180516001600160e01b031663a9059cbb60e01b1790529151600092839290871691611dea919061327c565b6000604051808303816000865af19150503d8060008114611e27576040519150601f19603f3d011682016040523d82523d6000602084013e611e2c565b606091505b5091509150818015611e56575080511580611e56575080806020019051810190611e5691906133e8565b6113155760405162461bcd60e51b815260206004820152601f60248201527f5472616e7366657248656c7065723a205452414e534645525f4641494c4544006044820152606401610248565b6000611eb082840184613484565b90504281606001511015611ef85760405162461bcd60e51b815260206004820152600f60248201526e1493d55511548e88115e1c1a5c9959608a1b6044820152606401610248565b602081015151815151148015611f145750604081015151815151145b611f605760405162461bcd60e51b815260206004820152601860248201527f696e76616c696420737761702064617461206c656e67746800000000000000006044820152606401610248565b80515160005b81811015612178576000611f7a8a336118e3565b9050611fb58a3386600001518581518110611f9757611f976130e5565b6020026020010151876020015186815181106116ad576116ad6130e5565b8884602001518381518110611fcc57611fcc6130e5565b602002602001015111156120185760405162461bcd60e51b81526020600482015260136024820152721a5b9d985b1a59081cddd85c08185b5bdd5b9d606a1b6044820152606401610248565b60006120248b336118e3565b61202e908361319f565b905061203a818b61319f565b995050506000808b6001600160a01b0316638b674f5d60e01b86604001518581518110612069576120696130e5565b602002602001015160405160240161208191906132d3565b60408051601f198184030181529181526020820180516001600160e01b03166001600160e01b03199094169390931790925290516120bf919061327c565b6000604051808303816000865af19150503d80600081146120fc576040519150601f19603f3d011682016040523d82523d6000602084013e612101565b606091505b5091509150816121635761214a816040518060400160405280601b81526020017f7377617053696e676c6553657175656e6365206661696c65643a200000000000815250612262565b60405162461bcd60e51b815260040161024891906132d3565b5050808061217090613111565b915050611f66565b506000808a6001600160a01b031663774b6b7e60e01b8b8a8a88608001516040516024016121a99493929190613566565b60408051601f198184030181529181526020820180516001600160e01b03166001600160e01b03199094169390931790925290516121e7919061327c565b6000604051808303816000865af19150503d8060008114612224576040519150601f19603f3d011682016040523d82523d6000602084013e612229565b606091505b5091509150816122555761214a8160405180606001604052806023815260200161367a60239139612262565b5050505050505050505050565b6060604483511015801561229b575082600081518110612284576122846130e5565b6020910101516001600160f81b031916600160fb1b145b80156122cc5750826001815181106122b5576122b56130e5565b6020910101516001600160f81b03191660c360f81b145b80156122fd5750826002815181106122e6576122e66130e5565b6020910101516001600160f81b031916607960f81b145b801561232e575082600381518110612317576123176130e5565b6020910101516001600160f81b031916600560fd1b145b156123b85760448381018051909161234691906133d0565b8451101561238e5760405162461bcd60e51b815260206004820152601560248201527424b73b30b634b2103932bb32b93a103932b0b9b7b760591b6044820152606401610248565b82816040516020016123a19291906135a4565b604051602081830303815290604052915050611322565b825160241480156123ee5750826000815181106123d7576123d76130e5565b6020910101516001600160f81b031916602760f91b145b801561241f575082600181518110612408576124086130e5565b6020910101516001600160f81b031916600960fb1b145b8015612450575082600281518110612439576124396130e5565b6020910101516001600160f81b031916607b60f81b145b801561248157508260038151811061246a5761246a6130e5565b6020910101516001600160f81b031916607160f81b145b156124a6576024830151826124958261279d565b6040516020016123a19291906135f3565b816124b0846127c5565b6040516020016124c1929190613628565b604051602081830303815290604052905092915050565b604051636eb1769f60e11b81523060048201526001600160a01b038381166024830152600091839186169063dd62ed3e9060440160206040518083038186803b15801561252457600080fd5b505afa158015612538573d6000803e3d6000fd5b505050506040513d601f19601f8201168201806040525081019061255c919061328e565b61256691906133d0565b6040516001600160a01b03851660248201526044810182905290915061171690859063095ea7b360e01b90606401611c2b565b806125a357611716565b604080516001600160a01b0385811660248301528481166044830152606480830185905283518084039091018152608490920183526020820180516001600160e01b03166323b872dd60e01b1790529151600092839290881691612607919061327c565b6000604051808303816000865af19150503d8060008114612644576040519150601f19603f3d011682016040523d82523d6000602084013e612649565b606091505b509150915081801561267357508051158061267357508080602001905181019061267391906133e8565b6113135760405162461bcd60e51b8152602060048201526024808201527f5472616e7366657248656c7065723a205452414e534645525f46524f4d5f46416044820152631253115160e21b6064820152608401610248565b6000612720826040518060400160405280602081526020017f5361666545524332303a206c6f772d6c6576656c2063616c6c206661696c6564815250856001600160a01b03166129ac9092919063ffffffff16565b8051909150156102dd578080602001905181019061273e91906133e8565b6102dd5760405162461bcd60e51b815260206004820152602a60248201527f5361666545524332303a204552433230206f7065726174696f6e20646964206e6044820152691bdd081cdd58d8d9595960b21b6064820152608401610248565b6060611322826040516020016127b591815260200190565b6040516020818303038152906040525b80516060906f181899199a1a9b1b9c1cb0b131b232b360811b906000906127ed9060026132e6565b6127f89060026133d0565b6001600160401b0381111561280f5761280f612b2f565b6040519080825280601f01601f191660200182016040528015612839576020820181803683370190505b509050600360fc1b81600081518110612854576128546130e5565b60200101906001600160f81b031916908160001a905350600f60fb1b81600181518110612883576128836130e5565b60200101906001600160f81b031916908160001a90535060005b84518110156129a4578260048683815181106128bb576128bb6130e5565b01602001516001600160f81b031916901c60f81c601081106128df576128df6130e5565b1a60f81b826128ef8360026132e6565b6128fa9060026133d0565b8151811061290a5761290a6130e5565b60200101906001600160f81b031916908160001a90535082858281518110612934576129346130e5565b60209101015160f81c600f1660108110612950576129506130e5565b1a60f81b826129608360026132e6565b61296b9060036133d0565b8151811061297b5761297b6130e5565b60200101906001600160f81b031916908160001a9053508061299c81613111565b91505061289d565b509392505050565b60606129bb84846000856129c5565b90505b9392505050565b606082471015612a265760405162461bcd60e51b815260206004820152602660248201527f416464726573733a20696e73756666696369656e742062616c616e636520666f6044820152651c8818d85b1b60d21b6064820152608401610248565b6001600160a01b0385163b612a7d5760405162461bcd60e51b815260206004820152601d60248201527f416464726573733a2063616c6c20746f206e6f6e2d636f6e74726163740000006044820152606401610248565b600080866001600160a01b03168587604051612a99919061327c565b60006040518083038185875af1925050503d8060008114612ad6576040519150601f19603f3d011682016040523d82523d6000602084013e612adb565b606091505b5091509150612aeb828286612af6565b979650505050505050565b60608315612b055750816129be565b825115612b155782518084602001fd5b8160405162461bcd60e51b815260040161024891906132d3565b634e487b7160e01b600052604160045260246000fd5b60405161016081016001600160401b0381118282101715612b6857612b68612b2f565b60405290565b60405160a081016001600160401b0381118282101715612b6857612b68612b2f565b604051601f8201601f191681016001600160401b0381118282101715612bb857612bb8612b2f565b604052919050565b60006001600160401b03821115612bd957612bd9612b2f565b5060051b60200190565b6001600160a01b038116811461109957600080fd5b8035612c0381612be3565b919050565b600082601f830112612c1957600080fd5b81356020612c2e612c2983612bc0565b612b90565b82815260059290921b84018101918181019086841115612c4d57600080fd5b8286015b848110156114af578035612c6481612be3565b8352918301918301612c51565b801515811461109957600080fd5b60008060408385031215612c9257600080fd5b82356001600160401b0380821115612ca957600080fd5b612cb586838701612c08565b9350602091508185013581811115612ccc57600080fd5b85019050601f81018613612cdf57600080fd5b8035612ced612c2982612bc0565b81815260059190911b82018301908381019088831115612d0c57600080fd5b928401925b82841015612d33578335612d2481612c71565b82529284019290840190612d11565b80955050505050509250929050565b600060208284031215612d5457600080fd5b81356001600160401b03811115612d6a57600080fd5b820160a081850312156129be57600080fd5b60008060408385031215612d8f57600080fd5b8235612d9a81612be3565b946020939093013593505050565b600082601f830112612db957600080fd5b81356020612dc9612c2983612bc0565b82815260059290921b84018101918181019086841115612de857600080fd5b8286015b848110156114af5780358352918301918301612dec565b600082601f830112612e1457600080fd5b81356001600160401b03811115612e2d57612e2d612b2f565b612e40601f8201601f1916602001612b90565b818152846020838601011115612e5557600080fd5b816020850160208301376000918101602001919091529392505050565b60006101608284031215612e8557600080fd5b612e8d612b45565b9050612e9882612bf8565b8152612ea660208301612bf8565b602082015260408201356001600160401b0380821115612ec557600080fd5b612ed185838601612c08565b60408401526060840135915080821115612eea57600080fd5b612ef685838601612da8565b60608401526080840135915080821115612f0f57600080fd5b612f1b85838601612c08565b608084015260a0840135915080821115612f3457600080fd5b612f4085838601612da8565b60a0840152612f5160c08501612bf8565b60c084015260e084810135908401526101008085013590840152610120808501359084015261014091508184013581811115612f8c57600080fd5b612f9886828701612e03565b8385015250505092915050565b60008083601f840112612fb757600080fd5b5081356001600160401b03811115612fce57600080fd5b602083019150836020828501011115612fe657600080fd5b9250929050565b6000806000806000806080878903121561300657600080fd5b863561301181612be3565b955060208701356001600160401b038082111561302d57600080fd5b6130398a838b01612e72565b9650604089013591508082111561304f57600080fd5b61305b8a838b01612fa5565b9096509450606089013591508082111561307457600080fd5b5061308189828a01612fa5565b979a9699509497509295939492505050565b6000602082840312156130a557600080fd5b81356129be81612be3565b6020808252818101527f4f776e61626c653a2063616c6c6572206973206e6f7420746865206f776e6572604082015260600190565b634e487b7160e01b600052603260045260246000fd5b634e487b7160e01b600052601160045260246000fd5b6000600019821415613125576131256130fb565b5060010190565b6000823561015e1983360301811261314357600080fd5b9190910192915050565b60006113223683612e72565b6000808335601e1984360301811261317057600080fd5b8301803591506001600160401b0382111561318a57600080fd5b602001915036819003821315612fe657600080fd5b6000828210156131b1576131b16130fb565b500390565b6001600160a01b0396871681529486166020860152928516604085015293166060830152608082019290925260a081019190915260c00190565b60208152816020820152818360408301376000818301604090810191909152601f909201601f19160101919050565b60005b8381101561323a578181015183820152602001613222565b838111156117165750506000910152565b6001600160e01b031983168152815160009061326e81600485016020870161321f565b919091016004019392505050565b6000825161314381846020870161321f565b6000602082840312156132a057600080fd5b5051919050565b600081518084526132bf81602086016020860161321f565b601f01601f19169290920160200192915050565b6020815260006129be60208301846132a7565b6000816000190483118215151615613300576133006130fb565b500290565b60008261332257634e487b7160e01b600052601260045260246000fd5b500490565b600060c0820160018060a01b03808a1684526020898186015288604086015260c0606086015282885180855260e087019150828a01945060005b8181101561337f578551851683529483019491830191600101613361565b5050858103608087015287518082529082019350915080870160005b838110156133b75781518552938201939082019060010161339b565b5050505083151560a08401529050979650505050505050565b600082198211156133e3576133e36130fb565b500190565b6000602082840312156133fa57600080fd5b81516129be81612c71565b600082601f83011261341657600080fd5b81356020613426612c2983612bc0565b82815260059290921b8401810191818101908684111561344557600080fd5b8286015b848110156114af5780356001600160401b038111156134685760008081fd5b6134768986838b0101612e03565b845250918301918301613449565b60006020828403121561349657600080fd5b81356001600160401b03808211156134ad57600080fd5b9083019060a082860312156134c157600080fd5b6134c9612b6e565b8235828111156134d857600080fd5b6134e487828601612c08565b8252506020830135828111156134f957600080fd5b61350587828601612da8565b60208301525060408301358281111561351d57600080fd5b61352987828601613405565b6040830152506060830135606082015260808301358281111561354b57600080fd5b61355787828601612e03565b60808301525095945050505050565b6001600160a01b03858116825284811660208301528316604082015260806060820181905260009061359a908301846132a7565b9695505050505050565b600083516135b681846020880161321f565b6508ae4e4dee4560d31b90830190815283516135d981600684016020880161321f565b602960f81b60069290910191820152600701949350505050565b6000835161360581846020880161321f565b650a0c2dcd2c6560d31b90830190815283516135d981600684016020880161321f565b6000835161363a81846020880161321f565b670aadcd6dcdeeedc560c31b908301908152835161365f81600884016020880161321f565b602960f81b6008929091019182015260090194935050505056fe66696e616c5472616e73616374696f6e50726f63657373696e67206661696c65643a20a2646970667358221220dd2e95e264f0c03f866cd764746b634132522b1198e0821d966a6e7f488f23fd64736f6c63430008090033",
    "linkReferences": {}
  },
  "methodIdentifiers": {
    "WETH()": "ad5c4648",
    "isWhitelist(address)": "c683630d",
    "owner()": "8da5cb5b",
    "renounceOwnership()": "715018a6",
    "rescueFunds(address,uint256)": "78e3214f",
    "swap((address,address,bytes,(address,address,address[],uint256[],address[],uint256[],address,uint256,uint256,uint256,bytes),bytes))": "e21fd0e9",
    "swapGeneric((address,address,bytes,(address,address,address[],uint256[],address[],uint256[],address,uint256,uint256,uint256,bytes),bytes))": "59e50fed",
    "swapSimpleMode(address,(address,address,address[],uint256[],address[],uint256[],address,uint256,uint256,uint256,bytes),bytes,bytes)": "8af033fb",
    "transferOwnership(address)": "f2fde38b",
    "updateWhitelist(address[],bool[])": "33320de3"
  },
  "id": 4
}